{
  "contractName": "ZolveCoin",
  "abi": [
    {
      "inputs": [],
      "stateMutability": "nonpayable",
      "type": "constructor"
    },
    {
      "inputs": [],
      "name": "decimals",
      "outputs": [
        {
          "internalType": "uint256",
          "name": "",
          "type": "uint256"
        }
      ],
      "stateMutability": "view",
      "type": "function",
      "constant": true
    },
    {
      "inputs": [],
      "name": "name",
      "outputs": [
        {
          "internalType": "string",
          "name": "",
          "type": "string"
        }
      ],
      "stateMutability": "view",
      "type": "function",
      "constant": true
    },
    {
      "inputs": [],
      "name": "symbol",
      "outputs": [
        {
          "internalType": "string",
          "name": "",
          "type": "string"
        }
      ],
      "stateMutability": "view",
      "type": "function",
      "constant": true
    },
    {
      "inputs": [],
      "name": "totalSupply",
      "outputs": [
        {
          "internalType": "uint256",
          "name": "",
          "type": "uint256"
        }
      ],
      "stateMutability": "view",
      "type": "function",
      "constant": true
    },
    {
      "inputs": [
        {
          "internalType": "address",
          "name": "addr",
          "type": "address"
        }
      ],
      "name": "getBalanceOfAddress",
      "outputs": [
        {
          "internalType": "uint256",
          "name": "",
          "type": "uint256"
        }
      ],
      "stateMutability": "view",
      "type": "function",
      "constant": true
    }
  ],
  "bytecode": "0x6080604052630c84588060005560086001556040518060400160405280600a81526020017f5a6f6c766520436f696e000000000000000000000000000000000000000000008152506002908051906020019061005c929190610100565b506040518060400160405280600581526020017f5a4f4c5645000000000000000000000000000000000000000000000000000000815250600390805190602001906100a8929190610100565b503480156100b557600080fd5b506001600460003273ffffffffffffffffffffffffffffffffffffffff1673ffffffffffffffffffffffffffffffffffffffff16815260200190815260200160002081905550610204565b82805461010c906101d2565b90600052602060002090601f01602090048101928261012e5760008555610175565b82601f1061014757805160ff1916838001178555610175565b82800160010185558215610175579182015b82811115610174578251825591602001919060010190610159565b5b5090506101829190610186565b5090565b5b8082111561019f576000816000905550600101610187565b5090565b7f4e487b7100000000000000000000000000000000000000000000000000000000600052602260045260246000fd5b600060028204905060018216806101ea57607f821691505b602082108114156101fe576101fd6101a3565b5b50919050565b61048b806102136000396000f3fe608060405234801561001057600080fd5b50600436106100575760003560e01c806306fdde031461005c57806318160ddd1461007a578063313ce5671461009857806395d89b41146100b6578063f8b2cb4f146100d4575b600080fd5b610064610104565b604051610071919061030e565b60405180910390f35b610082610192565b60405161008f9190610349565b60405180910390f35b6100a0610198565b6040516100ad9190610349565b60405180910390f35b6100be61019e565b6040516100cb919061030e565b60405180910390f35b6100ee60048036038101906100e991906103c7565b61022c565b6040516100fb9190610349565b60405180910390f35b6002805461011190610423565b80601f016020809104026020016040519081016040528092919081815260200182805461013d90610423565b801561018a5780601f1061015f5761010080835404028352916020019161018a565b820191906000526020600020905b81548152906001019060200180831161016d57829003601f168201915b505050505081565b60005481565b60015481565b600380546101ab90610423565b80601f01602080910402602001604051908101604052809291908181526020018280546101d790610423565b80156102245780601f106101f957610100808354040283529160200191610224565b820191906000526020600020905b81548152906001019060200180831161020757829003601f168201915b505050505081565b6000600460008373ffffffffffffffffffffffffffffffffffffffff1673ffffffffffffffffffffffffffffffffffffffff168152602001908152602001600020549050919050565b600081519050919050565b600082825260208201905092915050565b60005b838110156102af578082015181840152602081019050610294565b838111156102be576000848401525b50505050565b6000601f19601f8301169050919050565b60006102e082610275565b6102ea8185610280565b93506102fa818560208601610291565b610303816102c4565b840191505092915050565b6000602082019050818103600083015261032881846102d5565b905092915050565b6000819050919050565b61034381610330565b82525050565b600060208201905061035e600083018461033a565b92915050565b600080fd5b600073ffffffffffffffffffffffffffffffffffffffff82169050919050565b600061039482610369565b9050919050565b6103a481610389565b81146103af57600080fd5b50565b6000813590506103c18161039b565b92915050565b6000602082840312156103dd576103dc610364565b5b60006103eb848285016103b2565b91505092915050565b7f4e487b7100000000000000000000000000000000000000000000000000000000600052602260045260246000fd5b6000600282049050600182168061043b57607f821691505b6020821081141561044f5761044e6103f4565b5b5091905056fea264697066735822122088935bdb340b104e94be4fd5c523b319c695c4405e5ed6c1ec9ead05537bd07264736f6c634300080a0033",
  "immutableReferences": {},
  "source": "// SPDX-License-Identifier: MIT\npragma solidity >=0.4.22 <0.9.0;\n\ncontract ZolveCoin {\n  uint public totalSupply = 210000000;\n  uint public decimals = 8;\n  string public name = \"Zolve Coin\";\n  string public symbol = \"ZOLVE\";\n\n  mapping (address => uint) balances;\n\n\tconstructor() public {\n\t\tbalances[tx.origin] = 1;\n\t}\n\n  function getBalanceOfAddress(address addr) public view returns(uint) {\n\t\treturn balances[addr];\n\t}\n}\n",
  "sourcePath": "/Users/leo/rails_projects/ZolveCoin/contracts/ZolveCoin.sol",
  "compiler": {
    "name": "solc",
    "version": "0.8.10+commit.fc410830.Emscripten.clang"
  },
  "schemaVersion": "3.4.3",
  "updatedAt": "2021-11-29T20:34:53.538Z",
  "networkType": "ethereum",
  "devdoc": {
    "kind": "dev",
    "methods": {},
    "version": 1
  },
  "userdoc": {
    "kind": "user",
    "methods": {},
    "version": 1
  }
}